:2000000034178300521443140114001412147A140014E4140C140B14001790009100110FD5
:20002000C0050817C1050417C2050C17C3050217C4050A17C5050617C6050E17C70501178B
:20004000C8050917C9050517CA050D17CB050317CC050B17CD050717CE050F17CF05001725
:20006000D00591090117D3059209121782009409D407D505D00803110310D405C017D605FF
:20008000100E4218100FD507D205100E6310D5050600D7050000100F0F171005100EF10060
:2000A000170410095318100F5518100E571858185918100F5B18100E5D185E185F18100F76
:2000C0000000F702100E64180000100E6718100F0000D702100E6C180000100E6F18100F92
:2000E0000000B702100E74180000100E7718100F00009702100ED6084018F917100E0000B6
:0C01000081188218831813007F1838182B
:2002000000150015001500150015001500150015001500150015001500150015001500158E
:20022000001500150015001500150015001500150015011501150115011502150215031563
:2002400003150315041505150515061506150715081509150A150B150C150D150E151015CA
:20026000111513151415161518151A151B151D151F1522152415261529152C152E15311537
:200280003315361539153C153F154315461549154C155015531557155A155E156215661559
:2002A0006A156E157215751579157D158215851589158C159115941599159C15A115A4157E
:2002C000A815AB15AF15B415B815BB15BD15C115C415C815CA15CE15D015D315D515D915B2
:2002E000DB15DD15DF15E115E315E515E715E715E915EB15EB15ED15ED15ED15ED15ED1540
:20030000EF15ED15ED15ED15ED15ED15EB15EB15E915E715E715E515E315E115DF15DD150B
:20032000DB15D915D515D315D015CE15CA15C815C415C115BD15BB15B815B415AF15AB151E
:20034000A815A415A1159C159915941591158C158915851582157D157915751572156E159F
:200360006A15661562155E155A155715531550154C154915461543153F153C153915361541
:20038000331531152E152C1529152615241522151F151D151B151A151815161514151315F4
:2003A000111510150E150D150C150B150A150915081507150615061505150515041503155B
:2003C0000315031502150215011501150115011500150015001500150015001500150015BF
:2003E0000015001500150015001500150015001500150015001500150015001500150015AD
:00000001FF
