:20000000342F8301522C432C012C002C122C7A2C002CE42C0C2C0B2C002F90019101111EA3
:20002000900B082F910B042F920B0C2F930B022F940B0A2F950B062F960B0E2F970B012F1B
:20004000980B092F990B052F9A0B0D2F9B0B032F9C0B0B2F9D0B072F9E0B0F2F9F0B002FB5
:20006000800B0113022F830B0213022F82010413840F850B801103290328840B802F860B68
:20008000101C4230101E850F820B101C002F02080600870B0F2F101E000A0027101C810329
:2000A0000708001200250000101E5630101C583059305A30101E5C30101C5E305F306030EC
:2000C000101E0000C723101C65300000101C6830101E00008723101C6D300000101C703016
:2000E000101E00004723101C75300000101C7830101E00000723101C7D300000101C8030B6
:20010000101C8230101E850F820B101C552F02080600870B0F2F101E000A0027101C810313
:200120000708001200250000101E9630101C983099309A30101E9C30101C9E309F30A0306B
:20014000101E0000C723101CA5300000101CA830101E00008723101CAD300000101CB03095
:20016000101E00004723101CB5300000101CB830101E00000723101CBD300000101CC03035
:20018000101CC230101E850F820B101CAA2F02080600870B0F2F101E000A0027101C8103FE
:2001A0000708001200250000101ED630101CD830D930DA30101EDC30101CDE30DF30E030EB
:2001C000101E0000C723101CE5300000101CE830101E00008723101CED300000101CF03015
:2001E000101E00004723101CF5300000101CF830101E00000723101C86114030F92F101CE3
:0E020000000002310331043163000031383058
:20040000002D002D002D002D002D002D002D002D002D002D002D002D002D002D002D002D0C
:20042000002D002D002D002D002D002D002D002D002D012D012D012D012D022D022D032DE1
:20044000032D032D042D052D052D062D062D072D082D092D0A2D0B2D0C2D0D2D0E2D102D48
:20046000112D132D142D162D182D1A2D1B2D1D2D1F2D222D242D262D292D2C2D2E2D312DB5
:20048000332D362D392D3C2D3F2D432D462D492D4C2D502D532D572D5A2D5E2D622D662DD7
:2004A0006A2D6E2D722D752D792D7D2D822D852D892D8C2D912D942D992D9C2DA12DA42DFC
:2004C000A82DAB2DAF2DB42DB82DBB2DBD2DC12DC42DC82DCA2DCE2DD02DD32DD52DD92D30
:2004E000DB2DDD2DDF2DE12DE32DE52DE72DE72DE92DEB2DEB2DED2DED2DED2DED2DED2DBE
:20050000EF2DED2DED2DED2DED2DED2DEB2DEB2DE92DE72DE72DE52DE32DE12DDF2DDD2D89
:20052000DB2DD92DD52DD32DD02DCE2DCA2DC82DC42DC12DBD2DBB2DB82DB42DAF2DAB2D9C
:20054000A82DA42DA12D9C2D992D942D912D8C2D892D852D822D7D2D792D752D722D6E2D1D
:200560006A2D662D622D5E2D5A2D572D532D502D4C2D492D462D432D3F2D3C2D392D362DBF
:20058000332D312D2E2D2C2D292D262D242D222D1F2D1D2D1B2D1A2D182D162D142D132D72
:2005A000112D102D0E2D0D2D0C2D0B2D0A2D092D082D072D062D062D052D052D042D032DD9
:2005C000032D032D022D022D012D012D012D012D002D002D002D002D002D002D002D002D3D
:2005E000002D002D002D002D002D002D002D002D002D002D002D002D002D002D002D002D2B
:00000001FF
