:20000000342F8301522C432C012C002C122C7A2C002CE42C0C2C0B2C002F90019101111EA3
:20002000800B082F810B042F820B0C2F830B022F840B0A2F850B062F860B0E2F870B012F9B
:20004000880B092F890B052F8A0B0D2F8B0B032F8C0B0B2F8D0B072F8E0B0F2F8F0B002F35
:20006000900B1113012F930B1213122F82011413940F950B901103290328940BC02F960B79
:20008000101C4230101E950F920B101C6328950B0600970B0000101E0F2F100A101C91030E
:2000A000170810125330101E5530101C573058305930101E5B30101C5D305E305F30101E48
:2000C0000000D723101C64300000101C6730101E00009723101C6C300000101C6F30101EFA
:2000E00000005723101C74300000101C7730101E00001723101C96114030F92F101C0000E4
:0C01000081308230833063007F30383063
:20020000002D002D002D002D002D002D002D002D002D002D002D002D002D002D002D002D0E
:20022000002D002D002D002D002D002D002D002D002D012D012D012D012D022D022D032DE3
:20024000032D032D042D052D052D062D062D072D082D092D0A2D0B2D0C2D0D2D0E2D102D4A
:20026000112D132D142D162D182D1A2D1B2D1D2D1F2D222D242D262D292D2C2D2E2D312DB7
:20028000332D362D392D3C2D3F2D432D462D492D4C2D502D532D572D5A2D5E2D622D662DD9
:2002A0006A2D6E2D722D752D792D7D2D822D852D892D8C2D912D942D992D9C2DA12DA42DFE
:2002C000A82DAB2DAF2DB42DB82DBB2DBD2DC12DC42DC82DCA2DCE2DD02DD32DD52DD92D32
:2002E000DB2DDD2DDF2DE12DE32DE52DE72DE72DE92DEB2DEB2DED2DED2DED2DED2DED2DC0
:20030000EF2DED2DED2DED2DED2DED2DEB2DEB2DE92DE72DE72DE52DE32DE12DDF2DDD2D8B
:20032000DB2DD92DD52DD32DD02DCE2DCA2DC82DC42DC12DBD2DBB2DB82DB42DAF2DAB2D9E
:20034000A82DA42DA12D9C2D992D942D912D8C2D892D852D822D7D2D792D752D722D6E2D1F
:200360006A2D662D622D5E2D5A2D572D532D502D4C2D492D462D432D3F2D3C2D392D362DC1
:20038000332D312D2E2D2C2D292D262D242D222D1F2D1D2D1B2D1A2D182D162D142D132D74
:2003A000112D102D0E2D0D2D0C2D0B2D0A2D092D082D072D062D062D052D052D042D032DDB
:2003C000032D032D022D022D012D012D012D012D002D002D002D002D002D002D002D002D3F
:2003E000002D002D002D002D002D002D002D002D002D002D002D002D002D002D002D002D2D
:00000001FF
