:2000000034178300521443140114001412147A140014E4140C140B14001790009100110FD5
:20002000D0050817D1050417D2050C17D3050217D4050A17D5050617D6050E17D70501170B
:20004000D8050917D9050517DA050D17DB050317DC050B17DD050717DE050F17DF050017A5
:20006000C00581090217C3058209021782008409C407C505C00803110310C4058017C605EE
:20008000100E4218100FC507C205100E001702040600C7050F17100F00059003100EE1004D
:2000A0000704000980030000100F5618100E581859185A18100F5C18100E5E185F18601895
:2000C000100F0000F702100E65180000100E6818100F0000D702100E6D180000100E70188E
:2000E000100F0000B702100E75180000100E7818100F00009702100E7D180000100E8018AE
:20010000100E8218100FC507C205100E551702040600C7050F17100F00059003100EE10037
:200120000704000980030000100F9618100E981899189A18100F9C18100E9E189F18A01814
:20014000100F0000F702100EA5180000100EA818100F0000D702100EAD180000100EB0180D
:20016000100F0000B702100EB5180000100EB818100F00009702100EBD180000100EC0182D
:20018000100EC218100FC507C205100EAA1702040600C7050F17100F00059003100EE10022
:2001A0000704000980030000100FD618100ED818D918DA18100FDC18100EDE18DF18E01894
:2001C000100F0000F702100EE5180000100EE818100F0000D702100EED180000100EF0188D
:2001E000100F0000B702100EF5180000100EF818100F00009702100EC6084018F917100EA4
:0E020000000002190319041913000019381820
:2004000000150015001500150015001500150015001500150015001500150015001500158C
:20042000001500150015001500150015001500150015011501150115011502150215031561
:2004400003150315041505150515061506150715081509150A150B150C150D150E151015C8
:20046000111513151415161518151A151B151D151F1522152415261529152C152E15311535
:200480003315361539153C153F154315461549154C155015531557155A155E156215661557
:2004A0006A156E157215751579157D158215851589158C159115941599159C15A115A4157C
:2004C000A815AB15AF15B415B815BB15BD15C115C415C815CA15CE15D015D315D515D915B0
:2004E000DB15DD15DF15E115E315E515E715E715E915EB15EB15ED15ED15ED15ED15ED153E
:20050000EF15ED15ED15ED15ED15ED15EB15EB15E915E715E715E515E315E115DF15DD1509
:20052000DB15D915D515D315D015CE15CA15C815C415C115BD15BB15B815B415AF15AB151C
:20054000A815A415A1159C159915941591158C158915851582157D157915751572156E159D
:200560006A15661562155E155A155715531550154C154915461543153F153C15391536153F
:20058000331531152E152C1529152615241522151F151D151B151A151815161514151315F2
:2005A000111510150E150D150C150B150A1509150815071506150615051505150415031559
:2005C0000315031502150215011501150115011500150015001500150015001500150015BD
:2005E0000015001500150015001500150015001500150015001500150015001500150015AB
:00000001FF
